{
  "_format": "hh-sol-artifact-1",
  "contractName": "PairFactory",
  "sourceName": "contracts/PairFactory.sol",
  "abi": [
    {
      "inputs": [
        {
          "internalType": "address",
          "name": "initialOwner",
          "type": "address"
        }
      ],
      "stateMutability": "nonpayable",
      "type": "constructor"
    },
    {
      "inputs": [
        {
          "internalType": "address",
          "name": "owner",
          "type": "address"
        }
      ],
      "name": "OwnableInvalidOwner",
      "type": "error"
    },
    {
      "inputs": [
        {
          "internalType": "address",
          "name": "account",
          "type": "address"
        }
      ],
      "name": "OwnableUnauthorizedAccount",
      "type": "error"
    },
    {
      "anonymous": false,
      "inputs": [
        {
          "indexed": true,
          "internalType": "address",
          "name": "previousOwner",
          "type": "address"
        },
        {
          "indexed": true,
          "internalType": "address",
          "name": "newOwner",
          "type": "address"
        }
      ],
      "name": "OwnershipTransferred",
      "type": "event"
    },
    {
      "anonymous": false,
      "inputs": [
        {
          "indexed": true,
          "internalType": "address",
          "name": "tokenA",
          "type": "address"
        },
        {
          "indexed": true,
          "internalType": "address",
          "name": "tokenB",
          "type": "address"
        },
        {
          "indexed": false,
          "internalType": "address",
          "name": "pair",
          "type": "address"
        },
        {
          "indexed": false,
          "internalType": "uint256",
          "name": "",
          "type": "uint256"
        }
      ],
      "name": "PairCreated",
      "type": "event"
    },
    {
      "inputs": [],
      "name": "INIT_CODE_PAIR_HASH",
      "outputs": [
        {
          "internalType": "bytes32",
          "name": "",
          "type": "bytes32"
        }
      ],
      "stateMutability": "view",
      "type": "function"
    },
    {
      "inputs": [
        {
          "internalType": "uint256",
          "name": "",
          "type": "uint256"
        }
      ],
      "name": "allPairs",
      "outputs": [
        {
          "internalType": "address",
          "name": "",
          "type": "address"
        }
      ],
      "stateMutability": "view",
      "type": "function"
    },
    {
      "inputs": [],
      "name": "allPairsLength",
      "outputs": [
        {
          "internalType": "uint256",
          "name": "",
          "type": "uint256"
        }
      ],
      "stateMutability": "view",
      "type": "function"
    },
    {
      "inputs": [
        {
          "internalType": "address",
          "name": "tokenA",
          "type": "address"
        },
        {
          "internalType": "address",
          "name": "tokenB",
          "type": "address"
        }
      ],
      "name": "createPair",
      "outputs": [
        {
          "internalType": "address",
          "name": "pair",
          "type": "address"
        }
      ],
      "stateMutability": "nonpayable",
      "type": "function"
    },
    {
      "inputs": [
        {
          "internalType": "address",
          "name": "",
          "type": "address"
        },
        {
          "internalType": "address",
          "name": "",
          "type": "address"
        }
      ],
      "name": "getPair",
      "outputs": [
        {
          "internalType": "address",
          "name": "",
          "type": "address"
        }
      ],
      "stateMutability": "view",
      "type": "function"
    },
    {
      "inputs": [],
      "name": "owner",
      "outputs": [
        {
          "internalType": "address",
          "name": "",
          "type": "address"
        }
      ],
      "stateMutability": "view",
      "type": "function"
    },
    {
      "inputs": [
        {
          "internalType": "address",
          "name": "tokenA",
          "type": "address"
        },
        {
          "internalType": "address",
          "name": "tokenB",
          "type": "address"
        }
      ],
      "name": "pairFor",
      "outputs": [
        {
          "internalType": "address",
          "name": "pair",
          "type": "address"
        }
      ],
      "stateMutability": "view",
      "type": "function"
    },
    {
      "inputs": [],
      "name": "renounceOwnership",
      "outputs": [],
      "stateMutability": "nonpayable",
      "type": "function"
    },
    {
      "inputs": [],
      "name": "rewardTo",
      "outputs": [
        {
          "internalType": "address",
          "name": "",
          "type": "address"
        }
      ],
      "stateMutability": "view",
      "type": "function"
    },
    {
      "inputs": [
        {
          "internalType": "address",
          "name": "_rewardTo",
          "type": "address"
        }
      ],
      "name": "setRewardTo",
      "outputs": [],
      "stateMutability": "nonpayable",
      "type": "function"
    },
    {
      "inputs": [
        {
          "internalType": "address",
          "name": "newOwner",
          "type": "address"
        }
      ],
      "name": "transferOwnership",
      "outputs": [],
      "stateMutability": "nonpayable",
      "type": "function"
    }
  ],
  "bytecode": "0x60806040523480156200001157600080fd5b506040516200473338038062004733833981810160405281019062000037919062000235565b80600073ffffffffffffffffffffffffffffffffffffffff168173ffffffffffffffffffffffffffffffffffffffff1603620000ad5760006040517f1e4fbdf7000000000000000000000000000000000000000000000000000000008152600401620000a4919062000278565b60405180910390fd5b620000be816200010760201b60201c565b5033600160006101000a81548173ffffffffffffffffffffffffffffffffffffffff021916908373ffffffffffffffffffffffffffffffffffffffff1602179055505062000295565b60008060009054906101000a900473ffffffffffffffffffffffffffffffffffffffff169050816000806101000a81548173ffffffffffffffffffffffffffffffffffffffff021916908373ffffffffffffffffffffffffffffffffffffffff1602179055508173ffffffffffffffffffffffffffffffffffffffff168173ffffffffffffffffffffffffffffffffffffffff167f8be0079c531659141344cd1fd0a4f28419497f9722a3daafe3b4186f6b6457e060405160405180910390a35050565b600080fd5b600073ffffffffffffffffffffffffffffffffffffffff82169050919050565b6000620001fd82620001d0565b9050919050565b6200020f81620001f0565b81146200021b57600080fd5b50565b6000815190506200022f8162000204565b92915050565b6000602082840312156200024e576200024d620001cb565b5b60006200025e848285016200021e565b91505092915050565b6200027281620001f0565b82525050565b60006020820190506200028f600083018462000267565b92915050565b61448e80620002a56000396000f3fe60806040523480156200001157600080fd5b5060043610620000b85760003560e01c8063812b83e9116200007b578063812b83e914620001655780638da5cb5b146200018557806396ed28f914620001a7578063c9c6539614620001dd578063e6a439051462000213578063f2fde38b146200024957620000b8565b80631e3dd18b14620000bd5780631fdfdeab14620000f3578063574f2ba314620001155780635855a25a1462000137578063715018a61462000159575b600080fd5b620000db6004803603810190620000d5919062000c93565b62000269565b604051620000ea919062000d0a565b60405180910390f35b620000fd620002a9565b6040516200010c919062000d0a565b60405180910390f35b6200011f620002cf565b6040516200012e919062000d38565b60405180910390f35b62000141620002dc565b60405162000150919062000d70565b60405180910390f35b620001636200032d565b005b6200018360048036038101906200017d919062000dbe565b62000345565b005b6200018f62000393565b6040516200019e919062000d0a565b60405180910390f35b620001c56004803603810190620001bf919062000df0565b620003bc565b604051620001d4919062000d0a565b60405180910390f35b620001fb6004803603810190620001f5919062000df0565b62000421565b6040516200020a919062000d0a565b60405180910390f35b6200023160048036038101906200022b919062000df0565b6200086b565b60405162000240919062000d0a565b60405180910390f35b62000267600480360381019062000261919062000dbe565b620008ad565b005b600381815481106200027a57600080fd5b906000526020600020016000915054906101000a900473ffffffffffffffffffffffffffffffffffffffff1681565b600160009054906101000a900473ffffffffffffffffffffffffffffffffffffffff1681565b6000600380549050905090565b60405180602001620002ee9062000c45565b6020820181038252601f19601f8201166040525060405160200162000314919062000eb0565b6040516020818303038152906040528051906020012081565b620003376200093a565b620003436000620009ca565b565b6200034f6200093a565b80600160006101000a81548173ffffffffffffffffffffffffffffffffffffffff021916908373ffffffffffffffffffffffffffffffffffffffff16021790555050565b60008060009054906101000a900473ffffffffffffffffffffffffffffffffffffffff16905090565b60006200041930848460405180602001620003d79062000c45565b6020820181038252601f19601f82011660405250604051602001620003fd919062000eb0565b6040516020818303038152906040528051906020012062000a8e565b905092915050565b600080600062000432858562000b09565b91509150600073ffffffffffffffffffffffffffffffffffffffff16600260008473ffffffffffffffffffffffffffffffffffffffff1673ffffffffffffffffffffffffffffffffffffffff16815260200190815260200160002060008373ffffffffffffffffffffffffffffffffffffffff1673ffffffffffffffffffffffffffffffffffffffff16815260200190815260200160002060009054906101000a900473ffffffffffffffffffffffffffffffffffffffff1673ffffffffffffffffffffffffffffffffffffffff161462000544576040517f08c379a00000000000000000000000000000000000000000000000000000000081526004016200053b9062000f2a565b60405180910390fd5b600060405180602001620005589062000c45565b6020820181038252601f19601f820116604052509050600083836040516020016200058592919062000f9c565b604051602081830303815290604052805190602001209050808251602084016000f594508473ffffffffffffffffffffffffffffffffffffffff1663485cc95585856040518363ffffffff1660e01b8152600401620005e692919062000fcc565b600060405180830381600087803b1580156200060157600080fd5b505af115801562000616573d6000803e3d6000fd5b5050505084600260008673ffffffffffffffffffffffffffffffffffffffff1673ffffffffffffffffffffffffffffffffffffffff16815260200190815260200160002060008573ffffffffffffffffffffffffffffffffffffffff1673ffffffffffffffffffffffffffffffffffffffff16815260200190815260200160002060006101000a81548173ffffffffffffffffffffffffffffffffffffffff021916908373ffffffffffffffffffffffffffffffffffffffff16021790555084600260008573ffffffffffffffffffffffffffffffffffffffff1673ffffffffffffffffffffffffffffffffffffffff16815260200190815260200160002060008673ffffffffffffffffffffffffffffffffffffffff1673ffffffffffffffffffffffffffffffffffffffff16815260200190815260200160002060006101000a81548173ffffffffffffffffffffffffffffffffffffffff021916908373ffffffffffffffffffffffffffffffffffffffff1602179055506003859080600181540180825580915050600190039060005260206000200160009091909190916101000a81548173ffffffffffffffffffffffffffffffffffffffff021916908373ffffffffffffffffffffffffffffffffffffffff1602179055508273ffffffffffffffffffffffffffffffffffffffff168473ffffffffffffffffffffffffffffffffffffffff167f0d3648bd0f6ba80134a33ba9275ac585d9d315f0ad8355cddefde31afa28d0e9876003805490506040516200085992919062000ff9565b60405180910390a35050505092915050565b60026020528160005260406000206020528060005260406000206000915091509054906101000a900473ffffffffffffffffffffffffffffffffffffffff1681565b620008b76200093a565b600073ffffffffffffffffffffffffffffffffffffffff168173ffffffffffffffffffffffffffffffffffffffff16036200092c5760006040517f1e4fbdf700000000000000000000000000000000000000000000000000000000815260040162000923919062000d0a565b60405180910390fd5b6200093781620009ca565b50565b6200094462000c3d565b73ffffffffffffffffffffffffffffffffffffffff166200096462000393565b73ffffffffffffffffffffffffffffffffffffffff1614620009c8576200098a62000c3d565b6040517f118cdaa7000000000000000000000000000000000000000000000000000000008152600401620009bf919062000d0a565b60405180910390fd5b565b60008060009054906101000a900473ffffffffffffffffffffffffffffffffffffffff169050816000806101000a81548173ffffffffffffffffffffffffffffffffffffffff021916908373ffffffffffffffffffffffffffffffffffffffff1602179055508173ffffffffffffffffffffffffffffffffffffffff168173ffffffffffffffffffffffffffffffffffffffff167f8be0079c531659141344cd1fd0a4f28419497f9722a3daafe3b4186f6b6457e060405160405180910390a35050565b600080600062000a9f868662000b09565b9150915086828260405160200162000ab992919062000f9c565b604051602081830303815290604052805190602001208560405160200162000ae493929190620010a6565b6040516020818303038152906040528051906020012060001c92505050949350505050565b6000808273ffffffffffffffffffffffffffffffffffffffff168473ffffffffffffffffffffffffffffffffffffffff160362000b7d576040517f08c379a000000000000000000000000000000000000000000000000000000000815260040162000b749062001146565b60405180910390fd5b8273ffffffffffffffffffffffffffffffffffffffff168473ffffffffffffffffffffffffffffffffffffffff161062000bb957828462000bbc565b83835b8092508193505050600073ffffffffffffffffffffffffffffffffffffffff168273ffffffffffffffffffffffffffffffffffffffff160362000c36576040517f08c379a000000000000000000000000000000000000000000000000000000000815260040162000c2d90620011b8565b60405180910390fd5b9250929050565b600033905090565b61327e80620011db83390190565b600080fd5b6000819050919050565b62000c6d8162000c58565b811462000c7957600080fd5b50565b60008135905062000c8d8162000c62565b92915050565b60006020828403121562000cac5762000cab62000c53565b5b600062000cbc8482850162000c7c565b91505092915050565b600073ffffffffffffffffffffffffffffffffffffffff82169050919050565b600062000cf28262000cc5565b9050919050565b62000d048162000ce5565b82525050565b600060208201905062000d21600083018462000cf9565b92915050565b62000d328162000c58565b82525050565b600060208201905062000d4f600083018462000d27565b92915050565b6000819050919050565b62000d6a8162000d55565b82525050565b600060208201905062000d87600083018462000d5f565b92915050565b62000d988162000ce5565b811462000da457600080fd5b50565b60008135905062000db88162000d8d565b92915050565b60006020828403121562000dd75762000dd662000c53565b5b600062000de78482850162000da7565b91505092915050565b6000806040838503121562000e0a5762000e0962000c53565b5b600062000e1a8582860162000da7565b925050602062000e2d8582860162000da7565b9150509250929050565b600081519050919050565b600081905092915050565b60005b8381101562000e6d57808201518184015260208101905062000e50565b60008484015250505050565b600062000e868262000e37565b62000e92818562000e42565b935062000ea481856020860162000e4d565b80840191505092915050565b600062000ebe828462000e79565b915081905092915050565b600082825260208201905092915050565b7f504149525f414c52454144595f45584953545300000000000000000000000000600082015250565b600062000f1260138362000ec9565b915062000f1f8262000eda565b602082019050919050565b6000602082019050818103600083015262000f458162000f03565b9050919050565b60008160601b9050919050565b600062000f668262000f4c565b9050919050565b600062000f7a8262000f59565b9050919050565b62000f9662000f908262000ce5565b62000f6d565b82525050565b600062000faa828562000f81565b60148201915062000fbc828462000f81565b6014820191508190509392505050565b600060408201905062000fe3600083018562000cf9565b62000ff2602083018462000cf9565b9392505050565b600060408201905062001010600083018562000cf9565b6200101f602083018462000d27565b9392505050565b600081905092915050565b7fff00000000000000000000000000000000000000000000000000000000000000600082015250565b60006200106960018362001026565b9150620010768262001031565b600182019050919050565b6000819050919050565b620010a06200109a8262000d55565b62001081565b82525050565b6000620010b3826200105a565b9150620010c1828662000f81565b601482019150620010d382856200108b565b602082019150620010e582846200108b565b602082019150819050949350505050565b7f4944454e544943414c5f4144445245535345535f4e4f545f414c4c4f57454400600082015250565b60006200112e601f8362000ec9565b91506200113b82620010f6565b602082019050919050565b6000602082019050818103600083015262001161816200111f565b9050919050565b7f5a45524f5f414444524553535f4e4f545f414c4c4f5745440000000000000000600082015250565b6000620011a060188362000ec9565b9150620011ad8262001168565b602082019050919050565b60006020820190508181036000830152620011d38162001191565b905091905056fe60806040523480156200001157600080fd5b506040518060400160405280600e81526020017f44455820546f6b656e20506169720000000000000000000000000000000000008152506040518060400160405280600681526020017f4445582d5450000000000000000000000000000000000000000000000000000081525081600390816200008f91906200036d565b508060049081620000a191906200036d565b505050600160058190555033600660006101000a81548173ffffffffffffffffffffffffffffffffffffffff021916908373ffffffffffffffffffffffffffffffffffffffff16021790555062000454565b600081519050919050565b7f4e487b7100000000000000000000000000000000000000000000000000000000600052604160045260246000fd5b7f4e487b7100000000000000000000000000000000000000000000000000000000600052602260045260246000fd5b600060028204905060018216806200017557607f821691505b6020821081036200018b576200018a6200012d565b5b50919050565b60008190508160005260206000209050919050565b60006020601f8301049050919050565b600082821b905092915050565b600060088302620001f57fffffffffffffffffffffffffffffffffffffffffffffffffffffffffffffffff82620001b6565b620002018683620001b6565b95508019841693508086168417925050509392505050565b6000819050919050565b6000819050919050565b60006200024e62000248620002428462000219565b62000223565b62000219565b9050919050565b6000819050919050565b6200026a836200022d565b62000282620002798262000255565b848454620001c3565b825550505050565b600090565b620002996200028a565b620002a68184846200025f565b505050565b5b81811015620002ce57620002c26000826200028f565b600181019050620002ac565b5050565b601f8211156200031d57620002e78162000191565b620002f284620001a6565b8101602085101562000302578190505b6200031a6200031185620001a6565b830182620002ab565b50505b505050565b600082821c905092915050565b6000620003426000198460080262000322565b1980831691505092915050565b60006200035d83836200032f565b9150826002028217905092915050565b6200037882620000f3565b67ffffffffffffffff811115620003945762000393620000fe565b5b620003a082546200015c565b620003ad828285620002d2565b600060209050601f831160018114620003e55760008415620003d0578287015190505b620003dc85826200034f565b8655506200044c565b601f198416620003f58662000191565b60005b828110156200041f57848901518255600182019150602085019450602081019050620003f8565b868310156200043f57848901516200043b601f8916826200032f565b8355505b6001600288020188555050505b505050505050565b612e1a80620004646000396000f3fe608060405234801561001057600080fd5b50600436106101375760003560e01c80636d9a640a116100b8578063a9059cbb1161007c578063a9059cbb14610357578063ba9a7a5614610387578063bc25cf77146103a5578063c45a0155146103c1578063dd62ed3e146103df578063fff6cae91461040f57610137565b80636d9a640a1461029e57806370a08231146102ba5780637464fc3d146102ea57806389afcb441461030857806395d89b411461033957610137565b806323b872dd116100ff57806323b872dd146101e6578063313ce56714610216578063485cc955146102345780635f64b55b146102505780636a6278421461026e57610137565b806306fdde031461013c5780630902f1ac1461015a578063095ea7b31461017a5780630fc63d10146101aa57806318160ddd146101c8575b600080fd5b610144610419565b6040516101519190612370565b60405180910390f35b6101626104ab565b604051610171939291906123ab565b60405180910390f35b610194600480360381019061018f9190612471565b6104c4565b6040516101a191906124cc565b60405180910390f35b6101b26104e7565b6040516101bf91906124f6565b60405180910390f35b6101d061050d565b6040516101dd9190612511565b60405180910390f35b61020060048036038101906101fb919061252c565b610517565b60405161020d91906124cc565b60405180910390f35b61021e610546565b60405161022b919061259b565b60405180910390f35b61024e600480360381019061024991906125b6565b61054f565b005b610258610665565b60405161026591906124f6565b60405180910390f35b610288600480360381019061028391906125f6565b61068b565b6040516102959190612511565b60405180910390f35b6102b860048036038101906102b39190612623565b61096f565b005b6102d460048036038101906102cf91906125f6565b610e3e565b6040516102e19190612511565b60405180910390f35b6102f2610e86565b6040516102ff9190612511565b60405180910390f35b610322600480360381019061031d91906125f6565b610e8c565b604051610330929190612676565b60405180910390f35b610341611255565b60405161034e9190612370565b60405180910390f35b610371600480360381019061036c9190612471565b6112e7565b60405161037e91906124cc565b60405180910390f35b61038f61130a565b60405161039c9190612511565b60405180910390f35b6103bf60048036038101906103ba91906125f6565b611310565b005b6103c9611495565b6040516103d691906124f6565b60405180910390f35b6103f960048036038101906103f491906125b6565b6114bb565b6040516104069190612511565b60405180910390f35b610417611542565b005b606060038054610428906126ce565b80601f0160208091040260200160405190810160405280929190818152602001828054610454906126ce565b80156104a15780601f10610476576101008083540402835291602001916104a1565b820191906000526020600020905b81548152906001019060200180831161048457829003601f168201915b5050505050905090565b6000806000600a549250600b549150600c549050909192565b6000806104cf611694565b90506104dc81858561169c565b600191505092915050565b600760009054906101000a900473ffffffffffffffffffffffffffffffffffffffff1681565b6000600254905090565b600080610522611694565b905061052f8582856116ae565b61053a858585611742565b60019150509392505050565b60006012905090565b600660009054906101000a900473ffffffffffffffffffffffffffffffffffffffff1673ffffffffffffffffffffffffffffffffffffffff163373ffffffffffffffffffffffffffffffffffffffff16146105df576040517f08c379a00000000000000000000000000000000000000000000000000000000081526004016105d69061274b565b60405180910390fd5b81600760006101000a81548173ffffffffffffffffffffffffffffffffffffffff021916908373ffffffffffffffffffffffffffffffffffffffff16021790555080600860006101000a81548173ffffffffffffffffffffffffffffffffffffffff021916908373ffffffffffffffffffffffffffffffffffffffff1602179055505050565b600860009054906101000a900473ffffffffffffffffffffffffffffffffffffffff1681565b6000610695611836565b6000806106a06104ab565b50915091506000600760009054906101000a900473ffffffffffffffffffffffffffffffffffffffff1673ffffffffffffffffffffffffffffffffffffffff166370a08231306040518263ffffffff1660e01b815260040161070291906124f6565b602060405180830381865afa15801561071f573d6000803e3d6000fd5b505050506040513d601f19601f820116820180604052508101906107439190612780565b90506000600860009054906101000a900473ffffffffffffffffffffffffffffffffffffffff1673ffffffffffffffffffffffffffffffffffffffff166370a08231306040518263ffffffff1660e01b81526004016107a291906124f6565b602060405180830381865afa1580156107bf573d6000803e3d6000fd5b505050506040513d601f19601f820116820180604052508101906107e39190612780565b9050600084836107f391906127dc565b90506000848361080391906127dc565b90506000610811878761187c565b9050600061081d61050d565b90506000810361085d576103e861083e84866108399190612810565b611a03565b61084891906127dc565b985061085861dead6103e8611afc565b610896565b61089388828661086d9190612810565b6108779190612881565b8883866108849190612810565b61088e9190612881565b611b7e565b98505b600089116108d9576040517f08c379a00000000000000000000000000000000000000000000000000000000081526004016108d0906128fe565b60405180910390fd5b6108e38a8a611afc565b6108ed8686611b97565b811561090a57600b54600a546109039190612810565b6009819055505b3373ffffffffffffffffffffffffffffffffffffffff167f4c209b5fc8ad50758f13e2e1088ba56a560dff690a1c6fef26394f4c03821c4f8585604051610952929190612676565b60405180910390a2505050505050505061096a611bed565b919050565b610977611836565b60008311806109865750600082115b6109c5576040517f08c379a00000000000000000000000000000000000000000000000000000000081526004016109bc9061296a565b60405180910390fd5b6000806109d06104ab565b509150915081851080156109e357508084105b610a22576040517f08c379a0000000000000000000000000000000000000000000000000000000008152600401610a19906129d6565b60405180910390fd5b6000600760009054906101000a900473ffffffffffffffffffffffffffffffffffffffff1690506000600860009054906101000a900473ffffffffffffffffffffffffffffffffffffffff1690508173ffffffffffffffffffffffffffffffffffffffff168573ffffffffffffffffffffffffffffffffffffffff1614158015610ad857508073ffffffffffffffffffffffffffffffffffffffff168573ffffffffffffffffffffffffffffffffffffffff1614155b610b17576040517f08c379a0000000000000000000000000000000000000000000000000000000008152600401610b0e90612a42565b60405180910390fd5b6000871115610b2c57610b2b828689611bf7565b5b6000861115610b4157610b40818688611bf7565b5b60008273ffffffffffffffffffffffffffffffffffffffff166370a08231306040518263ffffffff1660e01b8152600401610b7c91906124f6565b602060405180830381865afa158015610b99573d6000803e3d6000fd5b505050506040513d601f19601f82011682018060405250810190610bbd9190612780565b905060008273ffffffffffffffffffffffffffffffffffffffff166370a08231306040518263ffffffff1660e01b8152600401610bfa91906124f6565b602060405180830381865afa158015610c17573d6000803e3d6000fd5b505050506040513d601f19601f82011682018060405250810190610c3b9190612780565b905060008987610c4b91906127dc565b8311610c58576000610c70565b8987610c6491906127dc565b83610c6f91906127dc565b5b905060008987610c8091906127dc565b8311610c8d576000610ca5565b8987610c9991906127dc565b83610ca491906127dc565b5b90506000821180610cb65750600081115b610cf5576040517f08c379a0000000000000000000000000000000000000000000000000000000008152600401610cec90612aae565b60405180910390fd5b6000600283610d049190612810565b6103e886610d129190612810565b610d1c91906127dc565b90506000600283610d2d9190612810565b6103e886610d3b9190612810565b610d4591906127dc565b9050620f4240600b54600a54610d5b9190612810565b610d659190612810565b8183610d719190612810565b1015610db2576040517f08c379a0000000000000000000000000000000000000000000000000000000008152600401610da990612b1a565b60405180910390fd5b5050610dbe8484611b97565b8873ffffffffffffffffffffffffffffffffffffffff163373ffffffffffffffffffffffffffffffffffffffff167fd78ad95fa46c994b6551d0da85fc275fe613ce37657fb8d5e3d130840159d82284848f8f604051610e219493929190612b3a565b60405180910390a35050505050505050610e39611bed565b505050565b60008060008373ffffffffffffffffffffffffffffffffffffffff1673ffffffffffffffffffffffffffffffffffffffff168152602001908152602001600020549050919050565b60095481565b600080610e97611836565b600080610ea26104ab565b50915091506000600760009054906101000a900473ffffffffffffffffffffffffffffffffffffffff1690506000600860009054906101000a900473ffffffffffffffffffffffffffffffffffffffff16905060008273ffffffffffffffffffffffffffffffffffffffff166370a08231306040518263ffffffff1660e01b8152600401610f3091906124f6565b602060405180830381865afa158015610f4d573d6000803e3d6000fd5b505050506040513d601f19601f82011682018060405250810190610f719190612780565b905060008273ffffffffffffffffffffffffffffffffffffffff166370a08231306040518263ffffffff1660e01b8152600401610fae91906124f6565b602060405180830381865afa158015610fcb573d6000803e3d6000fd5b505050506040513d601f19601f82011682018060405250810190610fef9190612780565b90506000610ffc30610e3e565b9050600061100a888861187c565b9050600061101661050d565b90508085846110259190612810565b61102f9190612881565b9a5080848461103e9190612810565b6110489190612881565b995060008b11801561105a575060008a115b611099576040517f08c379a000000000000000000000000000000000000000000000000000000000815260040161109090612bcb565b60405180910390fd5b6110a33084611d81565b6110ae878d8d611bf7565b6110b9868d8c611bf7565b8673ffffffffffffffffffffffffffffffffffffffff166370a08231306040518263ffffffff1660e01b81526004016110f291906124f6565b602060405180830381865afa15801561110f573d6000803e3d6000fd5b505050506040513d601f19601f820116820180604052508101906111339190612780565b94508573ffffffffffffffffffffffffffffffffffffffff166370a08231306040518263ffffffff1660e01b815260040161116e91906124f6565b602060405180830381865afa15801561118b573d6000803e3d6000fd5b505050506040513d601f19601f820116820180604052508101906111af9190612780565b93506111bb8585611b97565b81156111d857600b54600a546111d19190612810565b6009819055505b8b73ffffffffffffffffffffffffffffffffffffffff163373ffffffffffffffffffffffffffffffffffffffff167fdccd412f0b1252819cb1fd330b93224ca42612892bb3f4f789976e6d819364968d8d604051611237929190612676565b60405180910390a3505050505050505050611250611bed565b915091565b606060048054611264906126ce565b80601f0160208091040260200160405190810160405280929190818152602001828054611290906126ce565b80156112dd5780601f106112b2576101008083540402835291602001916112dd565b820191906000526020600020905b8154815290600101906020018083116112c057829003601f168201915b5050505050905090565b6000806112f2611694565b90506112ff818585611742565b600191505092915050565b6103e881565b611318611836565b6000600760009054906101000a900473ffffffffffffffffffffffffffffffffffffffff1690506000600860009054906101000a900473ffffffffffffffffffffffffffffffffffffffff1690506113f78284600a548573ffffffffffffffffffffffffffffffffffffffff166370a08231306040518263ffffffff1660e01b81526004016113a791906124f6565b602060405180830381865afa1580156113c4573d6000803e3d6000fd5b505050506040513d601f19601f820116820180604052508101906113e89190612780565b6113f291906127dc565b611bf7565b6114888184600b548473ffffffffffffffffffffffffffffffffffffffff166370a08231306040518263ffffffff1660e01b815260040161143891906124f6565b602060405180830381865afa158015611455573d6000803e3d6000fd5b505050506040513d601f19601f820116820180604052508101906114799190612780565b61148391906127dc565b611bf7565b5050611492611bed565b50565b600660009054906101000a900473ffffffffffffffffffffffffffffffffffffffff1681565b6000600160008473ffffffffffffffffffffffffffffffffffffffff1673ffffffffffffffffffffffffffffffffffffffff16815260200190815260200160002060008373ffffffffffffffffffffffffffffffffffffffff1673ffffffffffffffffffffffffffffffffffffffff16815260200190815260200160002054905092915050565b61154a611836565b61168a600760009054906101000a900473ffffffffffffffffffffffffffffffffffffffff1673ffffffffffffffffffffffffffffffffffffffff166370a08231306040518263ffffffff1660e01b81526004016115a891906124f6565b602060405180830381865afa1580156115c5573d6000803e3d6000fd5b505050506040513d601f19601f820116820180604052508101906115e99190612780565b600860009054906101000a900473ffffffffffffffffffffffffffffffffffffffff1673ffffffffffffffffffffffffffffffffffffffff166370a08231306040518263ffffffff1660e01b815260040161164491906124f6565b602060405180830381865afa158015611661573d6000803e3d6000fd5b505050506040513d601f19601f820116820180604052508101906116859190612780565b611b97565b611692611bed565b565b600033905090565b6116a98383836001611e03565b505050565b60006116ba84846114bb565b90507fffffffffffffffffffffffffffffffffffffffffffffffffffffffffffffffff811461173c578181101561172c578281836040517ffb8f41b200000000000000000000000000000000000000000000000000000000815260040161172393929190612beb565b60405180910390fd5b61173b84848484036000611e03565b5b50505050565b600073ffffffffffffffffffffffffffffffffffffffff168373ffffffffffffffffffffffffffffffffffffffff16036117b45760006040517f96c6fd1e0000000000000000000000000000000000000000000000000000000081526004016117ab91906124f6565b60405180910390fd5b600073ffffffffffffffffffffffffffffffffffffffff168273ffffffffffffffffffffffffffffffffffffffff16036118265760006040517fec442f0500000000000000000000000000000000000000000000000000000000815260040161181d91906124f6565b60405180910390fd5b611831838383611fda565b505050565b600260055403611872576040517f3ee5aeb500000000000000000000000000000000000000000000000000000000815260040160405180910390fd5b6002600581905550565b600080600660009054906101000a900473ffffffffffffffffffffffffffffffffffffffff1673ffffffffffffffffffffffffffffffffffffffff16631fdfdeab6040518163ffffffff1660e01b8152600401602060405180830381865afa1580156118ec573d6000803e3d6000fd5b505050506040513d601f19601f820116820180604052508101906119109190612c37565b9050600073ffffffffffffffffffffffffffffffffffffffff168173ffffffffffffffffffffffffffffffffffffffff16141591506000600954905082156119e957600081146119e4576000611970858761196b9190612810565b611a03565b9050600061197d83611a03565b9050808211156119e15760006009836119969190612810565b826119a19190612c64565b82846119ad91906127dc565b6119b561050d565b6119bf9190612810565b6119c99190612881565b905060008111156119df576119de8582611afc565b5b505b50505b6119fb565b600081146119fa5760006009819055505b5b505092915050565b6000808203611a155760009050611af7565b60006001611a22846121ff565b901c6001901b90506001818481611a3c57611a3b612852565b5b048201901c90506001818481611a5557611a54612852565b5b048201901c90506001818481611a6e57611a6d612852565b5b048201901c90506001818481611a8757611a86612852565b5b048201901c90506001818481611aa057611a9f612852565b5b048201901c90506001818481611ab957611ab8612852565b5b048201901c90506001818481611ad257611ad1612852565b5b048201901c9050611af381828581611aed57611aec612852565b5b04611b7e565b9150505b919050565b600073ffffffffffffffffffffffffffffffffffffffff168273ffffffffffffffffffffffffffffffffffffffff1603611b6e5760006040517fec442f05000000000000000000000000000000000000000000000000000000008152600401611b6591906124f6565b60405180910390fd5b611b7a60008383611fda565b5050565b6000818310611b8d5781611b8f565b825b905092915050565b81600a8190555080600b8190555042600c819055507fcf2aa50876cdfbb541206f89af0ee78d44a2abf8d328e37fa4917f982149848a600a54600b54604051611be1929190612676565b60405180910390a15050565b6001600581905550565b6000808473ffffffffffffffffffffffffffffffffffffffff166040518060400160405280601981526020017f7472616e7366657228616464726573732c75696e743235362900000000000000815250805190602001208585604051602401611c61929190612c98565b604051602081830303815290604052907bffffffffffffffffffffffffffffffffffffffffffffffffffffffff19166020820180517bffffffffffffffffffffffffffffffffffffffffffffffffffffffff8381831617835250505050604051611ccb9190612d08565b6000604051808303816000865af19150503d8060008114611d08576040519150601f19603f3d011682016040523d82523d6000602084013e611d0d565b606091505b5091509150818015611d3b5750600081511480611d3a575080806020019051810190611d399190612d4b565b5b5b611d7a576040517f08c379a0000000000000000000000000000000000000000000000000000000008152600401611d7190612dc4565b60405180910390fd5b5050505050565b600073ffffffffffffffffffffffffffffffffffffffff168273ffffffffffffffffffffffffffffffffffffffff1603611df35760006040517f96c6fd1e000000000000000000000000000000000000000000000000000000008152600401611dea91906124f6565b60405180910390fd5b611dff82600083611fda565b5050565b600073ffffffffffffffffffffffffffffffffffffffff168473ffffffffffffffffffffffffffffffffffffffff1603611e755760006040517fe602df05000000000000000000000000000000000000000000000000000000008152600401611e6c91906124f6565b60405180910390fd5b600073ffffffffffffffffffffffffffffffffffffffff168373ffffffffffffffffffffffffffffffffffffffff1603611ee75760006040517f94280d62000000000000000000000000000000000000000000000000000000008152600401611ede91906124f6565b60405180910390fd5b81600160008673ffffffffffffffffffffffffffffffffffffffff1673ffffffffffffffffffffffffffffffffffffffff16815260200190815260200160002060008573ffffffffffffffffffffffffffffffffffffffff1673ffffffffffffffffffffffffffffffffffffffff168152602001908152602001600020819055508015611fd4578273ffffffffffffffffffffffffffffffffffffffff168473ffffffffffffffffffffffffffffffffffffffff167f8c5be1e5ebec7d5bd14f71427d1e84f3dd0314c0f7b2291e5b200ac8c7c3b92584604051611fcb9190612511565b60405180910390a35b50505050565b600073ffffffffffffffffffffffffffffffffffffffff168373ffffffffffffffffffffffffffffffffffffffff160361202c5780600260008282546120209190612c64565b925050819055506120ff565b60008060008573ffffffffffffffffffffffffffffffffffffffff1673ffffffffffffffffffffffffffffffffffffffff168152602001908152602001600020549050818110156120b8578381836040517fe450d38c0000000000000000000000000000000000000000000000000000000081526004016120af93929190612beb565b60405180910390fd5b8181036000808673ffffffffffffffffffffffffffffffffffffffff1673ffffffffffffffffffffffffffffffffffffffff16815260200190815260200160002081905550505b600073ffffffffffffffffffffffffffffffffffffffff168273ffffffffffffffffffffffffffffffffffffffff16036121485780600260008282540392505081905550612195565b806000808473ffffffffffffffffffffffffffffffffffffffff1673ffffffffffffffffffffffffffffffffffffffff168152602001908152602001600020600082825401925050819055505b8173ffffffffffffffffffffffffffffffffffffffff168373ffffffffffffffffffffffffffffffffffffffff167fddf252ad1be2c89b69c2b068fc378daa952ba7f163c4a11628f55a4df523b3ef836040516121f29190612511565b60405180910390a3505050565b600080600090506000608084901c111561222157608083901c92506080810190505b6000604084901c111561223c57604083901c92506040810190505b6000602084901c111561225757602083901c92506020810190505b6000601084901c111561227257601083901c92506010810190505b6000600884901c111561228d57600883901c92506008810190505b6000600484901c11156122a857600483901c92506004810190505b6000600284901c11156122c357600283901c92506002810190505b6000600184901c11156122d7576001810190505b80915050919050565b600081519050919050565b600082825260208201905092915050565b60005b8381101561231a5780820151818401526020810190506122ff565b60008484015250505050565b6000601f19601f8301169050919050565b6000612342826122e0565b61234c81856122eb565b935061235c8185602086016122fc565b61236581612326565b840191505092915050565b6000602082019050818103600083015261238a8184612337565b905092915050565b6000819050919050565b6123a581612392565b82525050565b60006060820190506123c0600083018661239c565b6123cd602083018561239c565b6123da604083018461239c565b949350505050565b600080fd5b600073ffffffffffffffffffffffffffffffffffffffff82169050919050565b6000612412826123e7565b9050919050565b61242281612407565b811461242d57600080fd5b50565b60008135905061243f81612419565b92915050565b61244e81612392565b811461245957600080fd5b50565b60008135905061246b81612445565b92915050565b60008060408385031215612488576124876123e2565b5b600061249685828601612430565b92505060206124a78582860161245c565b9150509250929050565b60008115159050919050565b6124c6816124b1565b82525050565b60006020820190506124e160008301846124bd565b92915050565b6124f081612407565b82525050565b600060208201905061250b60008301846124e7565b92915050565b6000602082019050612526600083018461239c565b92915050565b600080600060608486031215612545576125446123e2565b5b600061255386828701612430565b935050602061256486828701612430565b92505060406125758682870161245c565b9150509250925092565b600060ff82169050919050565b6125958161257f565b82525050565b60006020820190506125b0600083018461258c565b92915050565b600080604083850312156125cd576125cc6123e2565b5b60006125db85828601612430565b92505060206125ec85828601612430565b9150509250929050565b60006020828403121561260c5761260b6123e2565b5b600061261a84828501612430565b91505092915050565b60008060006060848603121561263c5761263b6123e2565b5b600061264a8682870161245c565b935050602061265b8682870161245c565b925050604061266c86828701612430565b9150509250925092565b600060408201905061268b600083018561239c565b612698602083018461239c565b9392505050565b7f4e487b7100000000000000000000000000000000000000000000000000000000600052602260045260246000fd5b600060028204905060018216806126e657607f821691505b6020821081036126f9576126f861269f565b5b50919050565b7f4e4f545f464143544f5259000000000000000000000000000000000000000000600082015250565b6000612735600b836122eb565b9150612740826126ff565b602082019050919050565b6000602082019050818103600083015261276481612728565b9050919050565b60008151905061277a81612445565b92915050565b600060208284031215612796576127956123e2565b5b60006127a48482850161276b565b91505092915050565b7f4e487b7100000000000000000000000000000000000000000000000000000000600052601160045260246000fd5b60006127e782612392565b91506127f283612392565b925082820390508181111561280a576128096127ad565b5b92915050565b600061281b82612392565b915061282683612392565b925082820261283481612392565b9150828204841483151761284b5761284a6127ad565b5b5092915050565b7f4e487b7100000000000000000000000000000000000000000000000000000000600052601260045260246000fd5b600061288c82612392565b915061289783612392565b9250826128a7576128a6612852565b5b828204905092915050565b7f494e53554646494349454e545f4c49515549444954595f4d494e544544000000600082015250565b60006128e8601d836122eb565b91506128f3826128b2565b602082019050919050565b60006020820190508181036000830152612917816128db565b9050919050565b7f494e56414c49445f4f55545055545f414d4f554e540000000000000000000000600082015250565b60006129546015836122eb565b915061295f8261291e565b602082019050919050565b6000602082019050818103600083015261298381612947565b9050919050565b7f494e53554646494349454e545f52455345525645000000000000000000000000600082015250565b60006129c06014836122eb565b91506129cb8261298a565b602082019050919050565b600060208201905081810360008301526129ef816129b3565b9050919050565b7f494e56414c49445f4f55545055545f4144445245535300000000000000000000600082015250565b6000612a2c6016836122eb565b9150612a37826129f6565b602082019050919050565b60006020820190508181036000830152612a5b81612a1f565b9050919050565b7f494e53554646494349454e545f494e5055545f414d4f554e5400000000000000600082015250565b6000612a986019836122eb565b9150612aa382612a62565b602082019050919050565b60006020820190508181036000830152612ac781612a8b565b9050919050565b7f494e53554646494349454e545f4c495155494449545900000000000000000000600082015250565b6000612b046016836122eb565b9150612b0f82612ace565b602082019050919050565b60006020820190508181036000830152612b3381612af7565b9050919050565b6000608082019050612b4f600083018761239c565b612b5c602083018661239c565b612b69604083018561239c565b612b76606083018461239c565b95945050505050565b7f494e53554646494349454e545f4255524e494e475f4c49515549444954590000600082015250565b6000612bb5601e836122eb565b9150612bc082612b7f565b602082019050919050565b60006020820190508181036000830152612be481612ba8565b9050919050565b6000606082019050612c0060008301866124e7565b612c0d602083018561239c565b612c1a604083018461239c565b949350505050565b600081519050612c3181612419565b92915050565b600060208284031215612c4d57612c4c6123e2565b5b6000612c5b84828501612c22565b91505092915050565b6000612c6f82612392565b9150612c7a83612392565b9250828201905080821115612c9257612c916127ad565b5b92915050565b6000604082019050612cad60008301856124e7565b612cba602083018461239c565b9392505050565b600081519050919050565b600081905092915050565b6000612ce282612cc1565b612cec8185612ccc565b9350612cfc8185602086016122fc565b80840191505092915050565b6000612d148284612cd7565b915081905092915050565b612d28816124b1565b8114612d3357600080fd5b50565b600081519050612d4581612d1f565b92915050565b600060208284031215612d6157612d606123e2565b5b6000612d6f84828501612d36565b91505092915050565b7f5452414e534645525f4641494c45440000000000000000000000000000000000600082015250565b6000612dae600f836122eb565b9150612db982612d78565b602082019050919050565b60006020820190508181036000830152612ddd81612da1565b905091905056fea264697066735822122087f70627496f10d665a8c8c2dbfa275cb4af7272e84fb7431c06646b1ca3f9b664736f6c63430008180033a264697066735822122013dd6a70271f1d496d11b3742bfa8c35762e55f380d021db6396489b00a8d24364736f6c63430008180033",
  "linkReferences": {},
  "deployedLinkReferences": {}
}